:0400000041EF00F0DC
:100008006182FACF01F0FBCF02F0E9CF03F0EACF2B
:1000180004F0E1CF05F0E2CF06F0D9CF07F0DACF50
:1000280008F0F3CF09F0F4CF0AF0F6CF0BF0F7CFD2
:100038000CF0F8CF0DF0F5CF0EF0F2B2F2920EC040
:10004800F5FF0DC0F8FF0CC0F7FF0BC0F6FF0AC0A4
:10005800F4FF09C0F3FF08C0DAFF07C0D9FF06C0E4
:10006800E2FF05C0E1FF04C0EAFF03C0E9FF02C0E8
:10007800FBFF01C0FAFF6192110015EF02F020EEBC
:1000880051F010EE2DF00F0EDBCFE3FFE806FCE297
:10009800410E4B6E000E4F6E000E4E6E010E3D6E01
:1000A800000E3E6E000E3F6E000E406E000E466E55
:1000B800000E506E000E456E000E496E000E486E22
:1000C800000E4D6E000E4C6E000E416E000E426E1C
:1000D800000E436E000E446EC2EC01F080928990CF
:1000E800819AC7D081B034D05050D8A431D04BC0F9
:1000F8002EF04B2A5A0E4B6402D0410E4B6E808272
:100108004CC048F04DC049F04C502C6E2B6A4850FA
:100118002B10486E49502C10496E48C00FF049C04A
:1001280010F0116A126A3FEC01F00FC041F010C0E4
:1001380042F011C043F012C044F04C4A4D2A4D041D
:10014800D8A004D0000E4D6E000E4C6E010E506EFD
:100158009EA2C8D79E924E504F10D8B403D04E06D8
:10016800D8A04F064E504F10D8A4BCD75050D8B482
:10017800B9D75004D8A411D089A009D08990462AAB
:10018800020E466405D0000E466E502A01D08980C2
:10019800000E4F6E0A0E4E6EA5D7020E5018D8A448
:1001A80010D08980000E4F6EC80E4E6E000E456E40
:1001B800010E3D6E000E3E6E000E3F6E000E406E4C
:1001C80022D0030E5018D8A406D08990000E4F6E86
:1001D8003C0E4E6E18D0040E5018D8A40BD089804F
:1001E800000E4F6E3C0E4E6EFD0E926EBF0E946E5C
:1001F800AC8A09D0050E5018D8A407D0818A000E01
:1002080032EC02F01DD0502A6DD7060E5018D8A433
:100218001BD0000E4A6E4A50010D2D0EF324D96EE4
:10022800000EF420DA6EDF50476E4A2A475032EC4F
:1002380002F00D0E4718D8B403D00F0E4A64EBD75E
:10024800000E4F6E140EC5D79EA8FED7AC9A9468C0
:10025800FC0E926E000E506E89908092819A81A059
:10026800FED7000E106E140E0F6EF3EC01F081A095
:10027800FED7030037D7000E1B6E000E1C6E000E53
:100288001D6E000E1E6E010E276E000E286E000EEB
:10029800296E000E2A6E030E1F6E000E206E000ED1
:1002A800216E000E226E000E236E000E246E000ECC
:1002B800256E000E266E2650251024104AE1080EE1
:1002C800235CD8B046D00F502714136E1050281452
:1002D800146E11502914156E12502A14166E1350EC
:1002E800141015101610D8B40CD01F501B101B6E0C
:1002F80020501C101C6E21501D101D6E22501E1007
:100308001E6ED8902734276E2834286E2934296E1B
:100318002A342A6E1FC013F020C014F021C015F033
:1003280022C016F0020ED89013361436153616363B
:10033800E82EF9D713C01FF014C020F015C021F023
:1003480016C022F0010E2326000E24222522262282
:10035800B2D7AA0E1B18176EAA0E1C18186EAA0E72
:100368001D18196EAA0E1E181A6E17C00FF018C0A5
:1003780010F019C011F01AC012F01200F29EFC0E13
:10038800926E000EC26E0F0EC16EDF0E936EF19E5E
:100398009468AC9A9468FC0E926EAC94190EAF6E89
:1003A800AC98AB8EAB88AB9A9D989D9AAC9CAB9C55
:1003B800AC9AB898B89A000ECA6ECA90CA92CA96F1
:1003C800CA98CA9ACA9C280ECB6ECA84000EF26ECE
:1003D800F288000EF16EF19EF19CF28E1200000E72
:1003E800126E000E116E16D0136813061328D8A4C7
:1003F800FCD7136813061328D8A4FCD71368130670
:100408001328D8A4FCD7136813061328D8A4FCD73C
:10041800114A122A0F50115C10501258D8B012000D
:10042800E3D7540EF66E040EF76E000EF86E00EE6B
:1004380051F010EE10F00900F5CFEEFFE550E15055
:10044800FAE161906192000143EF00F03E414243BE
:100458004445463C0D000000000000000F6E9EA8B9
:08046800FED70FC0ADFF12002A
:020000040020DA
:08000000FFFFFFFFFFFFFFFF00
:020000040030CA
:0E000000FF02181EFF8180FF0FC00FE00F40AF
:00000001FF
